:020000040040BA
:10000000602B4020410940003D0940003D0940006F
:100010003D0940003D0940003D094000000000004E
:100020000000000000000000000000003D0940004A
:100030003D094000000000003D0940003D0940002E
:100040003D0940003D0940003D0940003D09400098
:100050003D0940003D0940003D0940003D09400088
:100060003D09400000000000A5044000B904400024
:10007000CD0440003D0940003D0940003D094000DD
:10008000E1044000F50440003D0940003D09400006
:100090003D0940003D0940003D0940003D09400048
:1000A0003D0940003D0940003D0940003D09400038
:1000B0003D0940003D0940003D0940003D09400028
:1000C0003D0940003D0940003D0940003D09400018
:1000D000000000003D094000000000003D09400014
:1000E0003D0940003D0940003D0940003D094000F8
:1000F0003D0940003D0940003D0940003D094000E8
:100100003D0940003D0940003D0940003D094000D7
:100110003D09400000000000000000000000000059
:100120003D0940003D0940003D0940003D094000B7
:100130003D094000000000003D0940003D0940002D
:1001400010B5054C237833B9044B13B10448AFF311
:1001500000800123237010BD9C0A40200000000095
:100160002C1440000C4B43B10C480D4910B5AFF3B3
:1001700000800C48036823B910BD0A48036833B9EE
:100180007047094B002BF7D0BDE810401847064BCD
:10019000002BF5D0184700BF000000002C144000D1
:1001A000A00A40202C1440000000000010B51048A8
:1001B000104B98473E2100200F4B98470F4CA0470B
:1001C0000028FCD00E4B98470E4A0F4B9A620F4CFA
:1001D000A0470028FCD002200D4B984700200D4B73
:1001E00098470D4B98470248024B984710BD00BFF7
:1001F00000A3E111150B4000A5054000F9054000E2
:1002000009064000013F182000060E401906400074
:100210000905400041054000090A4000016370479C
:10022000416370474264B1F1C05F3AD013D8B1F175
:10023000006F25D0B1F1805F0AD1036F13430367CC
:10024000436F416F0B4023EA0203436742607047EC
:100250000029FBD17047B1F1205F21D009D8B1F15D
:10026000005FF3D1036F13430367436F1343436787
:10027000ECE7B1F1405F13D0B1F1605F10D0E5E77A
:1002800010B4016F046FD34321401C46194001672D
:10029000436F416F0B402340436742605DF8044B5E
:1002A0007047036F016F0B4023EA02030367436F3C
:1002B00013434367CAE7416412F0010F0DD1016691
:1002C00012F00A0F0BD0016212F0020F09D112F0E6
:1002D000080F08D0C0F8841005E04166F0E74162DD
:1002E000F2E7C0F8801041610160704710B4019CD2
:1002F00041644CB901664BB101654AB94163016182
:1003000001605DF8044B70474166F4E74165F4E72E
:100310000163F4E770B582B0054616461C46B1F19C
:10032000005F14D00AD9B1F1405F24D0B1F1605F11
:1003300021D0B1F1205F17D000201AE0B1F1805F29
:1003400005D0B1F1C05F02D0B1F1006FF4D13246F7
:100350002846114B984714F0010F02D12E66012058
:1003600007E06E66012004E01A4631460B4B9847C1
:10037000012002B070BD04F001030093C4F38003B8
:10038000B1F1605F14BF0022012231462846044CBF
:10039000A0470120EDE700BF25024000B702400062
:1003A000ED02400012F0100F12D0C0F8B01012F0A1
:1003B000200F07D0C0F8D41012F0400F05D0C0F8BD
:1003C000C0107047C0F8D010F6E7C0F8C4107047EE
:1003D000C0F8B410704701647047C06C7047806CFF
:1003E000704700002DE9F041044688460E4B9847BF
:1003F000054620460D4B9847054013D00C4C04F1A0
:10040000600603E0B4420DD010345DB12068404571
:10041000F8D161682942F5D0E3689847636825EA16
:100420000305EFE7BDE8F081DB034000DF03400098
:10043000B80A4020F8B5184C2668062E2AD84FF086
:10044000000C6446154F04E00134E4B2A446A64211
:1004500009D3A64625017D598D42F5D107EB041538
:100460006D689542F0D10D4D4FEA0E1E05EB0E045E
:1004700045F80E106260A3600699E160013666459A
:1004800005D011461A46064B98470020F8BD024990
:100490000E60F6E70120F8BD280B4020B80A402086
:1004A000A503400008B50A210148024B984708BD42
:1004B000000E0E40E503400008B50B210148024B39
:1004C000984708BD00100E40E503400008B50C2118
:1004D0000148024B984708BD00120E40E50340005A
:1004E00008B510210148024B984708BD00140E4082
:1004F000E503400008B511210148024B984708BDAB
:1005000000160E40E5034000032811D0042812D045
:1005100002280CBF4FF480710021084A136B23F4AA
:1005200040730B431363936E13F0080FFBD07047B7
:100530004FF44071F1E74FF40071EEE700060E4012
:10054000174A136B23F0700318431063936E13F074
:10055000080F0AD14FF4805311498A6E12F0080F28
:1005600003D1013BF9D1012070470D4A136B23F0F1
:10057000030343F002031363936E13F0080F0AD1D1
:100580004FF4805306498A6E12F0080F05D1013BE3
:10059000F9D101207047002070470020704700BF4C
:1005A00000060E40A0B90E48036A090289B20D4A3E
:1005B0001A400D4B1343194301620246936E13F028
:1005C000010FFBD0064A116A084B0B4313627047B8
:1005D00003490B6A064A1A40064B13430B627047E5
:1005E00000060E40FCFFC8FF010037000000370185
:1005F000FCFFC8FE02003701024B986E00F4803009
:10060000704700BF00060E404FF00052014B9A6247
:10061000704700BF00060E40024B986E00F00200CB
:10062000704700BF00060E403F281ED81F280CD878
:10063000114B9A6901238340934318D0012303FA95
:1006400000F00D4B18610020704720380A4BD3F89A
:1006500008210123834093430BD0012303FA00F0C8
:10066000054BC3F8000100207047012070470020AF
:1006700070470020704700BF00060E407047000022
:10068000104A136F23F4C00343F480031367116A05
:100690000D4B0B431362936E13F0080FFBD04FF416
:1006A000FA7300BF013BFCD1064A136A13F0080F2E
:1006B000FBD0044A136F23F4C00343F48003136791
:1006C000704700BF00060E40040037002DE9F843D4
:1006D000431E042B00F20581DFE813F0050005003E
:1006E00013001300F400804A136923F0040313611C
:1006F00001227E4B1A70BFF35F8F62B630BFBDE838
:10070000F883044603280CBF00204FF40010784BF8
:10071000984772B6BFF35F8F0022744B1A700122A4
:10072000744B1A70744B1F6A1D6B744AD2F80080A8
:100730009E6A734A3A431A6205F00309B9F1010F40
:1007400040F2898025F0030141F0010119631A4646
:10075000936E13F0080FFBD011F0700F08D021F04A
:100760007001654B19631A46936E13F0080FFBD0A6
:10077000644B9847604A936E13F4003FFBD05E4A87
:10078000116A614B0B4043F45C131362936E13F4D4
:10079000803FFBD028F47063584A1360042C5CD06F
:1007A000524C01232370BFF35F8F62B6574B9847BB
:1007B00072B6BFF35F8F0023237017F0020F55D07E
:1007C0004D4A136A52491940524B0B431362116A46
:1007D000514B0B4043F45C131362504B3340002BDE
:1007E0006ED046F00056444B9E620221B9F1020FD2
:1007F00004D1414A936E13F0020FFBD03E4A136BB3
:1008000023F0700305F0700003431363936E13F03D
:10081000080FFBD0394BC3F80080A3F5C0631D63FC
:100820001A46936E13F0080FFBD0334A936E0B42B7
:10083000FCD000222F4B1A70394B1B681BB1984714
:100840000022374B1A600122284B1A70BFF35F8FCA
:1008500062B6BDE8F88329467EE7A2F5C062116A58
:10086000304B0B4043F45C13136299E717F0010F10
:10087000B3D0214B1B6A13F0010F0BD11E490B6A39
:10088000294A1A40294B13430B620A46936E13F010
:10089000010FFBD0184B1B6A13F0807F08D1164A5A
:1008A000116A234B0B431362936E13F4803FFBD00A
:1008B000114A116A184B0B4043F45C1313628CE726
:1008C000002193E7084A136943F004031361194AAE
:1008D000194B1A600122054B1A70BFF35F8F62B685
:1008E00030BFBDE8F88300BF00ED00E00A00402003
:1008F0007D0640002C0B402000060E40000C0E40F0
:100900000800370009064000FFFFC8FE81064000CE
:10091000FCFFC8FE0200370187FFC8FF0000FF0789
:10092000300B4020FEFFC8FFFCFFC8FF010037006E
:1009300000003701040000A510180E40FEE700007B
:1009400000B583B0254B264A9A4210D0254B234A46
:100950009A420CD2013B9B1A23F003030433134445
:100960001F4951F8040B42F8040B9A42F9D11E4B6F
:100970001E4A9A420AD2013B9B1A23F00303043316
:100980001344002142F8041B9342FBD1184A194B2F
:1009900023F07F039360EFF31083B3FA83F35B09D3
:1009A000019372B6BFF35F8F0022134B1A70019947
:1009B000124A136843F470031360BFF34F8FBFF301
:1009C0006F8F29B101220C4B1A70BFF35F8F62B693
:1009D0000B4B98470B4B9847FEE700BF00004020A9
:1009E0002C1440009C0A40205C0B40209C0A4020B4
:1009F00000ED00E0000040000A00402088ED00E02B
:100A00008D124000510E40003B4B1B6B03F0030363
:100A1000012B1DD083B1022B36D0374B1B6B03F05B
:100A20007003702B5FD0344B1A6B3449C2F302123F
:100A30000B68D3400B607047314B5B6913F0800F3C
:100A400014BF4FF400424FF4FA422C4B1A60E4E713
:100A5000294B1B6A13F0807F03D02A4A274B1A6068
:100A6000DBE7294A254B1A60234B1B6A03F070030E
:100A7000102B05D0202BD0D1224A204B1A60CCE776
:100A8000224A1E4B1A60C8E71B4B1B6A13F0807F7B
:100A900016D01C4A194B1A60174B1B6B03F003034B
:100AA000022BBAD1144A916A926A1448C1F30A41DE
:100AB000036801FB0333D2B2B3FBF2F30360ACE78C
:100AC000114A0E4B1A600C4B1B6A03F07003102B7B
:100AD00005D0202BE0D10B4A084B1A60DCE70B4A0B
:100AE000064B1A60D8E7054A13680949A1FB0313AE
:100AF0005B081360704700BF00060E400C004020EA
:100B000010180E40001BB70000093D0000127A00CB
:100B1000ABAAAAAA124B984211D9124B984213D9E8
:100B2000114B984214D9114B984215D9104B984249
:100B300094BF4FF004220F4A0F4B1A6070474FF0DA
:100B400080620D4B1A6070470C4A0B4B1A6070475D
:100B50000B4A094B1A6070470A4A074B1A607047E4
:100B6000FF2C3101FF596202FF869303FFB3C404D7
:100B7000FFE0F50500050004000C0E400001000434
:100B8000000200040003000408B50122024B1A70A1
:100B90000248034B984708BD370B4020252B4D00DA
:100BA0000100402008B50122024B1A700248034B95
:100BB000984708BD340B4020252B4D0001004020F4
:100BC00008B50122024B1A700248034B984708BD32
:100BD000350B4020252B4D000100402008B5012297
:100BE000024B1A700248034B984708BD360B402051
:100BF000252B4D00010040202DE9F84F4300274AE6
:100C000092FBF3F901FB00F8254981FB08314FEA1B
:100C1000E878D8EBA1183FD4224CA9FB04014A463E
:100C2000D31704FB0311204A0023204C0025001990
:100C300069411F4CA047824600241E4F1E4E1F4D87
:100C400010E03320DFF87CB0D847042138461C4B35
:100C500098474FF400212846B0473320D847013445
:100C6000A04519DB04213846B0474FF4002128463F
:100C7000134B9847B9F1000FE3D05046DFF844B06A
:100C8000D847042138460E4B98474FF40021284698
:100C9000B0475046D847E2E7BDE8F88F40420F0022
:100CA000D34D621000A3E111E0835A00DF835A00A4
:100CB0007D0F400000100E401D02400000120E404B
:100CC00021024000010040202DE9F04182B0504B4C
:100CD00098474FF400424F4B5A600B204E4CA047B0
:100CE0000C20A0470C20A0471020A0471020A047B0
:100CF0004A4E00234FF400224FF040513046484DF9
:100D0000A847484F00234FF080624FF040513846CB
:100D1000A84700234FF400624FF040513846A847DF
:100D200000234FF480724FF040513046A847002214
:100D30000092134604213C48DFF81081C0470A2086
:100D4000A0470A20A0471020A0470C20A047374CFE
:100D500001234FF400624FF020512046A8470123A1
:100D60004FF400624FF020512046A84701234FF472
:100D700000624FF020513846A84701234FF400622B
:100D80004FF020513046A847294B009350234FF491
:100D900000620A212046274DA847274B0093502385
:100DA00004220A212046A847244B009350234FF0E9
:100DB000804210213846A847214B009350234FF41E
:100DC00000520C213046A8471E4B4FF48061196039
:100DD000802283F80A23196083F80A234FF48031B4
:100DE000196083F810234FF48051196083F80C23A5
:100DF00004212046144CA0474FF080413846A047BC
:100E00004FF400513046A04702B0BDE8F08100BF6A
:100E1000AD01400050180E402906400000120E405F
:100E20001503400000140E4000100E40000E0E404E
:100E3000890B400035044000A50B4000C10B400069
:100E4000DD0B400000E100E0D7034000ED02400070
:100E50002DE9F047394B98474FF400213848394C79
:100E6000A047394D4FF080612846A0474FF40061FC
:100E70002846A0470026354C354F364DDFF8F0A008
:100E800007E00220B84707E0334B1B787BB9237893
:100E90008BB12378002BF4D12B78002BF4D00123D5
:100EA000237000232B702C4B1B78002BF1D00023D8
:100EB0002370294A1370294B53F826000028B8BF25
:100EC00001304FEA60084146254B53F82600254B78
:100ED0009847B8F1000F22D04246D317A8FB0A0169
:100EE0000AFB031141F22C72002341F22B784FF0E0
:100EF000000910EB080041EB0901DFF87880C047DA
:100F00008146DFF87480C04704211748174B984783
:100F10004846C047B6F54B7F0CD20136B9E73320BF
:100F2000DFF85480C04704210F48104B9847332006
:100F3000C047EFE700262670ABE700BFC90C4000B2
:100F400000120E401D02400000140E4068064020B2
:100F5000CD064000340B4020350B402010004020CF
:100F60003C034020F90B400000100E4021024000DD
:100F700000A3E1117D0F40000100402053B94AB9A0
:100F8000002908BF00281CBF4FF0FF314FF0FF3091
:100F900000F07AB9ADF1080C6DE904CE00F006F866
:100FA000DDF804E0DDE9022304B070472DE9F047E5
:100FB0008C460D460446089E002B51D18A421746A6
:100FC0006DD9B2FA82FEBEF1000F0BD0CEF1200C2B
:100FD00001FA0EF520FA0CFC02FA0EF74CEA050CA9
:100FE00000FA0EF44FEA174A250CBCFBFAF81FFA78
:100FF00087F90AFB18CC45EA0C4508FB09F3AB421C
:101000000AD9ED1908F1FF3280F02381AB4240F29A
:101010002081A8F102083D44ED1AA4B2B5FBFAF014
:101020000AFB105544EA054400FB09F9A14509D91A
:10103000E41900F1FF3380F00A81A14540F20781F5
:1010400002383C44A4EB090440EA08400021002E89
:1010500061D024FA0EF4002334607360BDE8F08799
:101060008B4207D9002E54D0002186E82100084683
:10107000BDE8F087B3FA83F1002940F08E80AB42DF
:1010800002D3824200F2FA80841A65EB0305012044
:10109000AC46002E3FD086E81010BDE8F08712B9AC
:1010A0000127B7FBF2F7B7FA87FEBEF1000F34D184
:1010B000EB1B3A0C1FFA87FC0121B3FBF2F8250C5D
:1010C00002FB183345EA03450CFB08F3AB4207D992
:1010D000ED1908F1FF3002D2AB4200F2D180804618
:1010E000ED1AA3B2B5FBF2F002FB105543EA05443A
:1010F0000CFB00FCA44507D9E41900F1FF3302D230
:10110000A44500F2B8801846A4EB0C0440EA08405D
:101110009DE731463046BDE8F087CEF1200405FA60
:101120000EF307FA0EF720FA04F83A0C25FA04F445
:1011300048EA0308B4FBF2F14FEA184502FB1144F8
:101140001FFA87FC45EA044501FB0CF3AB4200FAA9
:101150000EF409D9ED1901F1FF3080F08A80AB421D
:1011600040F2878002393D44EB1A1FFA88F5B3FB41
:10117000F2F002FB103345EA034500FB0CF3AB42EF
:1011800007D9ED1900F1FF386FD2AB426DD90238A3
:101190003D44EB1A40EA01418FE7C1F1200722FAF2
:1011A00007F88B4005FA01F448EA030320FA07FE2A
:1011B0004FEA134CFD404EEA040EB5FBFCF94FEA32
:1011C0001E440CFB19551FFA83F844EA054509FB38
:1011D00008F4AC4202FA01F200FA01FA08D9ED185B
:1011E00009F1FF3043D2AC4241D9A9F102091D44B3
:1011F0002D1B1FFA8EFEB5FBFCF00CFB10554EEAC2
:10120000054400FB08F8A04507D9E41800F1FF35B4
:1012100029D2A04527D902381C4440EA0940A4EB52
:101220000804A0FB02894C45C6464D4615D312D092
:1012300056B1BAEB0E0364EB050404FA07F7CB4092
:101240001F43CC40376074600021BDE8F08718462A
:10125000F8E69046E0E6C245EAD2B8EB020E69EB4A
:1012600003050138E4E72846D7E7404691E7814681
:10127000BEE7014678E702383C4445E7084608E700
:10128000A8F102083D442BE7704700BF70B50F4E30
:101290000F4D761BB61018BF002405D0013455F849
:1012A000043B9847A642F9D10A4E0B4D761B00F03D
:1012B000A7F8B61018BF002406D0013455F8043B37
:1012C0009847A642F9D170BD70BD00BF0C14400014
:1012D0000C144000141440000C144000024B13B1D5
:1012E000024800F005B8704700000000FD12400001
:1012F000002301461A46184600F01EB838B50A4CBD
:101300000A4D641BA4100AD004F18043013B05EB95
:101310008305013C55F804399847002CF9D1BDE804
:10132000384000F077B800BF24144000201440007B
:10133000704700BF704700BF2DE9F8432C4D0646AB
:10134000286898460F469146FFF7F2FF294B1C6824
:10135000D4F84831002B3ED05A681F2A1CDC02F119
:10136000010E76B103EB82010124C1F88890D3F815
:10137000880194402043022EC3F88801C1F80881F7
:1013800023D00232C3F804E0286843F82270FFF744
:10139000D1FF0020BDE8F883174B0BB34FF4C870A2
:1013A000AFF300800346D8B1D4F848210260002191
:1013B00041600A46C4F848014FF0010EC0F8881198
:1013C000C0F88C11002EDCD0CCE7D3F88C110C4384
:1013D000C3F88C41D5E704F5A673C4F84831BBE7E0
:1013E0002868FFF7A7FF4FF0FF30BDE8F88300BF84
:1013F000980A4020FC1340000000000070064020C6
:10140000F8B500BFF8BC08BC9E467047DD1240002E
:1014100065014000F8B500BFF8BC08BC9E467047A7
:041420004101400046
:0814240088FBFF7F01000000BE
:10142C00BFF35F8F0138FBD17047010000093D000D
:10143C007D0000007D000000FA0000007D0000002F
:10144C007D0000007D0000007D000000FA0000001F
:10145C007D0000007D0000007D0000007D0000008C
:10146C00FA0000007D0000007D0000007D000000FF
:10147C007D000000770100007D0000007D00000071
:10148C007D000000FA0000007D0000007D000000DF
:10149C007D0000007D000000FA0000007D000000CF
:1014AC007D0000007D0000007D000000FA000000BF
:1014BC007D0000007D0000007D0000007D0000002C
:1014CC00770100007D0000007D0000007D00000021
:1014DC00FA0000007D0000007D0000007D0000008F
:1014EC007D000000FA0000007D0000007D0000007F
:1014FC007D0000007D000000FA0000007D0000006F
:10150C007D0000007D0000007D0000007D000000DB
:10151C00FA0000007D0000007D0000007D0000004E
:10152C00FA0000007D0000007D000000FA000000C1
:10153C007D000000FA0000007D0000007D0000002E
:10154C007D000000FA0000007D0000007D0000001E
:10155C007D0000007D000000770100007701000095
:10156C00FA0000007D0000007D0000007D000000FE
:10157C00FA0000007D0000007D0000007D000000EE
:10158C007D000000FA0000007D0000007D000000DE
:10159C007D0000007D000000770100007D00000050
:1015AC007D0000007D000000FA0000007D000000BE
:1015BC007D0000007D0000007D000000FA000000AE
:1015CC007D0000007D0000007D0000007D0000001B
:1015DC00FA0000007D0000007D0000007D0000008E
:1015EC007D000000770100007D0000007D00000000
:1015FC007D000000FA0000007D0000007D0000006E
:10160C007D0000007D000000FA0000007D0000005D
:10161C007D0000007D0000007D000000FA0000004D
:10162C007D0000007D0000007D0000007D000000BA
:10163C007D000000FA0000007D0000007D0000002D
:10164C007D000000FA0000007D0000007D0000001D
:10165C00FA0000007D000000FA0000007D00000090
:10166C007D0000007D000000FA0000007D000000FD
:10167C007D0000007D0000007D000000770100006F
:10168C0077010000FA0000007D00000077010000E7
:10169C00FA0000007D000000770100007D000000D2
:1016AC007D0000007D0000007D0000007D0000003A
:1016BC007D0000007D0000007D000000770100002F
:1016CC00FA0000007D00000077010000FA00000025
:1016DC007D000000770100007D0000007D0000000F
:1016EC007D0000007D0000007D000000F401000082
:1016FC00FA0000007D00000077010000FA000000F5
:10170C007D000000770100007D0000007D000000DE
:10171C007D0000007D0000007D0000007D000000C9
:10172C007D0000007D00000077010000FA00000041
:10173C007D00000077010000FA0000007D00000031
:10174C00770100007D0000007D0000007D0000009E
:10175C007D0000007D000000F40100004A01000043
:10176C0088010000B8010000B80100000000000072
:10177C00B8010000EE0100000B0200000B0200009B
:10178C00000000000B0200004B020000EE01000004
:10179C00EE01000000000000B8010000880100000C
:1017AC00B8010000000000004A01000088010000A0
:1017BC00B8010000B801000000000000B8010000F2
:1017CC00EE0100000B0200000B0200000000000004
:1017DC000B0200004B020000EE010000EE010000C5
:1017EC0000000000B801000088010000B8010000F2
:1017FC00000000004A01000088010000B801000050
:10180C00B801000000000000B80100000B0200004D
:10181C004B0200004B020000000000004B020000D5
:10182C0093020000BA020000BA020000000000009F
:10183C00930200004B02000093020000B80100006C
:10184C0000000000B8010000EE0100000B020000D7
:10185C000B020000000000004B020000930200008D
:10186C00B801000000000000B80100000B020000ED
:10187C00EE010000EE010000000000000B02000071
:10188C00B8010000EE01000000000000B8010000EB
:10189C00B8010000B8010000EE0100000B020000CE
:1018AC000B020000000000000B0200004B020000C5
:1018BC00EE010000EE01000000000000B801000085
:1018CC0088010000B8010000000000004A0100007F
:1018DC0088010000B8010000B80100000000000001
:1018EC00B8010000EE0100000B0200000B0200002A
:1018FC00000000000B0200004B020000EE01000093
:10190C00EE01000000000000B8010000880100009A
:10191C00B8010000000000004A010000880100002E
:10192C00B8010000B801000000000000B801000080
:10193C000B0200004B0200004B02000000000000F4
:10194C004B02000093020000BA020000BA02000031
:10195C0000000000930200004B0200009302000004
:10196C00B801000000000000B8010000EE0100000A
:10197C000B0200000B020000000000004B020000F4
:10198C0093020000B801000000000000B801000044
:10199C000B020000EE010000EE0100000000000050
:1019AC000B020000B8010000EE0100000000000076
:1019BC00930200000000000000000000BA020000CA
:1019CC0000000000000000009302000093020000E1
:1019DC000000000010030000000000009302000053
:1019EC004B02000000000000000000004B02000051
:1019FC0000000000000000000B02000000000000CE
:101A0C0000000000EE0100000B02000000000000CE
:101A1C00EE01000000000000B8010000930200007D
:101A2C000000000000000000BA02000000000000EE
:101A3C000000000093020000930200000000000070
:101A4C001003000000000000930200004B02000095
:101A5C0000000000000000004B020000000000002D
:101A6C00000000000B02000000000000000000005D
:101A7C00EE0100000B02000000000000EE0100006F
:101A8C0000000000B8010000010000000000000090
:101A9C00000000005C094020C40940202C0A4020B2
:101AAC00000000000000000000000000000000002A
:101ABC00000000000000000000000000000000001A
:101ACC00000000000000000000000000000000000A
:101ADC0000000000000000000000000000000000FA
:101AEC0000000000000000000000000000000000EA
:101AFC0000000000000000000000000000000000DA
:101B0C0000000000000000000000000000000000C9
:101B1C0000000000000000000000000000000000B9
:101B2C0000000000000000000000000000000000A9
:101B3C000000000000000000010000000000000098
:101B4C000E33CDAB34126DE6ECDE05000B0000005D
:101B5C000000000000000000000000000000000079
:101B6C000000000000000000000000000000000069
:101B7C000000000000000000000000000000000059
:101B8C000000000000000000000000000000000049
:0C1EBC000000000000000000380B402077
:04000005004009416D
:00000001FF
